:100000000A128A1112280800FE00030E831203133D
:10001000DA000408DB000A08DC007F08DD000A12B1
:100020008A15122C0A128A11152883120313DF0174
:10003000E001E1018313CB308400EE300A168A110F
:10004000B92283010A168A113F2DD70057081C3E9A
:10005000840083130008013EBA003A08D200570812
:10006000193E84000008BA003A07013E84000A12D3
:100070008A1500200A128A11CC000A128A15002063
:100080000A128A11CD0003304C05BA0057081B3EF6
:100090008400831300083A07BB00BC013B08BE0084
:1000A0003C08BF004C08BA0002300310BA0CFF3EF7
:1000B000031D552803303A05BB0057081C3E840039
:1000C00000083B07BC00BD013C08C0003D08C10062
:1000D0004C084D04031982283E08BA003A08F4007F
:1000E0004008BB003B08F50057080A168A110A268B
:1000F0000A128A1104300310CD0CCC0CFF3E031DF4
:100100007B284328F701F70A0C300A128A153A2394
:100110000A128A1183125708193E840083130008BB
:10012000BA003A07013E84000A128A1500200A121A
:100130008A11D5000A128A1500200A128A11D600E7
:1001400003305505BA0057081B3E8400831300088E
:100150003A07BB00BC013B08C2003C08C30055087D
:10016000BA0002300310BA0CFF3E031DB228033060
:100170003A05BB0052083B07BC00BD013C08CA0061
:100180003D08CB00550856040319F32814304A06DD
:100190004B040319F3284208BA003A08F4004A084D
:1001A000BB003B08F50057080A168A11A0250A1261
:1001B0008A11003A031DF32800305602103003194B
:1001C00055020318EB285208BA0057081C3E840059
:1001D0003A088313800004300310D60CD50CFF3E80
:1001E000031DEC28A0285708193E8400831300083B
:1001F000BA003A07013E84000A128A1500200A124A
:100200008A11CE000A128A1500200A128A11CF0024
:1002100003304E05BA0057081B3E840083130008C4
:100220003A07BB00BC013B08C4003C08C5004E08AF
:10023000BA0002300310BA0CFF3E031D1A29033026
:100240003A05BB0057081C3E840000083B07BC0071
:10025000BD013C08C6003D08C7004E084F04031905
:1002600047294408BA003A08F4004608BB003B0896
:10027000F50057080A168A116B250A128A110430F4
:100280000310CF0CCE0CFF3E031D40290829570850
:100290001C3E84000008520603198B295708193E9A
:1002A00084000008BA003A07013E84000A128A1549
:1002B00000200A128A11D0000A128A1500200A12A0
:1002C0008A11D1005008BA0002300310BA0CFF3E68
:1002D000031D652903303A05BB0057081C3E840006
:1002E00000083B07BC00BD013C08C8003D08C90030
:1002F0005008510403198629C81B08000430031054
:10030000D10CD00CFF3E031D7F29622957080A1229
:100310008A11A62308005708193E84000008BA0075
:100320003A08A00057081B3E84000008BB003B08A9
:10033000A10057081C3E84000008FF3EBC003C089A
:10034000A20057080A128A159E210A128A1157081C
:10035000193E840083130008BA003A08A000570829
:100360001B3E84000008BB003B08A10057081C3E50
:1003700084000008BC003C08A20057080A128A1535
:1003800004220A128A11F701F70A01300A128A15AB
:100390003A230A128A118312D301D4015408BA00F5
:1003A0003A08F4005308BB003B08F50057080A164A
:1003B0008A11A0250A128A11303E0A168A11C1221A
:1003C0000A128A1101308312BA003A08D4070A309F
:1003D0005402031CCE29F901F90AF6300A128A15D3
:1003E000AA250A128A1101308312BA003A08D307EB
:1003F0001430530203180800CD29CC002E08031D29
:10040000052AFF30BD00FF30082A0130BD00003052
:10041000BE004C081B3E84003D0883130007AF005C
:100420002F08C7004C08193E84000008AF002F07B2
:10043000013E84000A128A1500200A128A11C300A4
:100440000A128A1500200A128A11C40003304305DB
:10045000AF004C081B3E8400831300082F07B00038
:10046000B1013008B3003108B4004308AF000230D6
:100470000310AF0CFF3E031D382A03302F05B000D8
:100480004C081C3E840000083007B100B20131085E
:10049000B5003208B600430844040319652A33083E
:1004A000AF002F08F4003508B0003008F5004C0804
:1004B0000A168A110A260A128A1104300310C40C83
:1004C000C30CFF3E031D5E2A262A4C08193E8400F9
:1004D0000008AF002F07013E84000A128A15002091
:1004E0000A128A11CA000A128A1500200A128A11F9
:1004F000CB00A12A4108AF002F08F4003708B00054
:100500003008F5004C080A168A11A0250A128A1133
:10051000003A031DCE2A00304B02103003194A0264
:1005200003189A2A4708AF004C081B3E84002F0886
:100530008313800004300310CB0CCA0CFF3E031D54
:100540009B2A03304A05AF0047082F07B000B101CE
:100550003008C1003108C2004A08AF000230031061
:10056000AF0CFF3E031DAF2A03302F05B0004C082F
:100570001C3E8400831300083007B100B20131082B
:10058000B7003208B8004A084B040319CE2A0030DD
:1005900042020A3003194102031C7A2A4C08193E10
:1005A000840083130008AF002F07013E84000A1265
:1005B0008A1500200A128A11C5000A128A15002025
:1005C0000A128A11C60003304505AF004C081B3ED5
:1005D0008400831300082F07B000B1013008B90070
:1005E0003108BA004508AF0002300310AF0CFF3EDF
:1005F000031DF52A03302F05B0004C081C3E840073
:1006000000083007B100B2013108BB003208BC005D
:10061000450846040319222B3908AF002F08F400BF
:100620003B08B0003008F5004C080A168A116B250B
:100630000A128A1104300310C60CC50CFF3E031DBC
:100640001B2BE32A4C081B3E840000084706031DB1
:1006500008002E08031D302BFF30BF00FF30332B66
:100660000130BF000030C0004C08193E8400000873
:10067000AF002F08A0004C081B3E84003F0800027A
:10068000B0003008A1004C081C3E84000008B100F6
:100690003108A2004C080A128A159E210A128A11FA
:1006A0004C08193E840083130008AF002F08A000F7
:1006B0004C081B3E84000008B0003008A1004C0824
:1006C0001C3E84000008B1003108A2004C080A1248
:1006D0008A1504220A128A11F701F70A01300A1258
:1006E0008A153A230A128A118312C801C9014908DE
:1006F000AF002F08F4004808B0003008F5004C089F
:100700000A168A11A0250A128A11303E0A168A1189
:10071000C1220A128A1101308312AF002F08C907C3
:100720000A304902031C772BF901F90AF6300A1244
:100730008A15AA250A128A1101308312AF002F08E8
:10074000C8071430480203180800762BB90039088E
:100750001A3E84000008AE003908193E84002E08B5
:1007600080000330AE0039081B3E84002E08800054
:100770003908193E840000080339031DC82B3908C5
:10078000193E8400183000060319C82BFE30D82B00
:100790003908193E840000030319D52B3908193E86
:1007A000840003300006031DD72BFC30D82BFD300E
:1007B000AE0039081C3E84002E08800039081F3E18
:1007C000840000080A128A15D0220A128A11AE008B
:1007D00039081A3E84002E08831380003908193E18
:1007E00084000008AE002E07013E84000A128A151C
:1007F00000200A128A11B1000A128A1500200A127A
:100800008A11B200310832040319262C31080F393D
:10081000AE00AE0A0130AF000030B000122C031061
:10082000AF0DB00DAE0B0F2CAF09B00939081D3E4E
:1008300084002F088005840A3008800504300310E6
:10084000B20CB10CFF3E031D1F2C022C39081A3EBE
:1008500084000008AE002E07013E84000A128A15AB
:1008600000200A128A11B3000A128A1500200A1207
:100870008A11B4003308340403195C2C33080F398F
:10088000AE00AE0A0130AF000030B0004A2C0310B9
:10089000AF0DB00DAE0B472C39081D3E84002F085C
:1008A0008004840A3008800404300310B40CB30CB4
:1008B000FF3E031D552C3A2C3908193E84000008D0
:1008C000AE002E07013E84000A128A1500200A128B
:1008D0008A11B5000A128A1500200A128A11B60080
:1008E000350836040319B02C39081D3E84008313E3
:1008F0000008AE00840A0008AF0035080F39013E39
:10090000842C0310AF0CAE0CFF3E031D812C2E086F
:100910002F04031D8D2C01308E2C0030013903195A
:10092000A72C3508AE0002300310AE0CFF3E031DAD
:10093000942C2E080339033EAF002F08FA00350827
:1009400003390E3E0A168A114E230A128A11043008
:1009500083120310B60CB50CFF3E031DA92C702C9E
:1009600039081A3E840083130008AE002E07013EAA
:1009700084000A128A1500200A128A11B7000A128E
:100980008A1500200A128A11B800370838040319A2
:10099000080039081D3E840083130008AE00840A55
:1009A0000008AF0037080F39013ED92C0310AF0CF7
:1009B000AE0CFF3E031DD62C2E1CF42C3708AE00C7
:1009C00002300310AE0CFF3E031DE12C2E0803394C
:1009D000033EAF002F08FA00370803390E3E0A160F
:1009E0008A1162230A128A11043083120310B80C90
:1009F000B70CFF3E031DF62CC52C00300A128A11DD
:100A000003200A128A11E0300A168A11D5230A122D
:100A10008A119430A4002408A1008C30A500250878
:100A2000A200E2300A168A113C230A128A11A6019A
:100A30009430A4002408A1008030A5002508A2005D
:100A4000E2300A168A113C230A128A110130A400EE
:100A50002408A60740302602031C182D9430A40059
:100A60002408A1009030A5002508A200E2300A1653
:100A70008A113C230A128A11B101DA300A168A114E
:100A8000D5230A128A119430A4002408A1008230D0
:100A9000A5002508A200E2300A168A113C230A129A
:100AA0008A1105303106031D7A2DA70120300A1660
:100AB0008A11E4220A128A110130A4002408A7072F
:100AC00019302702031C562D89300A168A11D523A6
:100AD0000A128A11A80120300A168A11E4220A1289
:100AE0008A110130A4002408A8071930280203182D
:100AF000042E6B2D07303106031DA32DA9012030D4
:100B00000A168A11E4220A128A110130A40024086C
:100B1000A90719302902031C7F2D49300A168A11B2
:100B2000D5230A128A11AA0120300A168A11E4225A
:100B30000A128A110130A4002408AA0719302A02D7
:100B40000318042E942D09303106031DCC2DAB0162
:100B500020300A168A11E4220A128A110130A400F8
:100B60002408AB0719302B02031CA82D5F300A168E
:100B70008A11D5230A128A11AC0120300A168A1173
:100B8000E4220A128A110130A4002408AC071930AB
:100B90002C020318042EBD2D0F303106031DF52D38
:100BA000AD0120300A168A11E4220A128A1101309E
:100BB000A4002408AD0719302D02031CD12D3330B9
:100BC0000A168A11D5230A128A11AE0120300A169C
:100BD0008A11E4220A128A110130A4002408AE0707
:100BE00019302E020318042EE62DAF0120300A160C
:100BF0008A11E4220A128A110130A4002408AF07E6
:100C000040302F02031CF62D9430A4002408A100CC
:100C10008230A5002508A200E2300A168A113C2382
:100C20000A128A110130A4002408B10714303102DD
:100C3000031C3D2DDA300A168A11D5230A128A11B7
:100C40009430A4002408A1009430A5002508A20037
:100C5000E2300A168A113C230A128A11B00194303C
:100C6000A4002408A1008030A5002508A200E230DD
:100C70000A168A113C230A128A110130A4002408A2
:100C8000B00740303002031C2F2E9430A4002408FB
:100C9000A1009830A5002508A200E2300A168A11AA
:100CA0003C230800C40044081A3E84000008B90030
:100CB0004408193E8400390880000330B900440814
:100CC0001B3E8400390880004408193E8400000857
:100CD0000339031D742E4408193E840018300006A1
:100CE0000319742EFE30842E4408193E840000033C
:100CF0000319812E4408193E840003300006031DA9
:100D0000832EFC30842EFD30B90044081C3E840044
:100D10003908800044081F3E840000080A168A1122
:100D20009B270A128A11B90044081A3E8400390828
:100D3000831380004408193E84000008B900390775
:100D4000013E84000A128A1500200A128A11BC0092
:100D50000A128A1500200A128A11BD003C083D04BF
:100D60000319D22E3C080F39B900B90A0130BA0074
:100D70000030BB00BE2E0310BA0DBB0DB90BBB2E4D
:100D8000BA09BB0944081D3E84003A088005840A5C
:100D90003B08800504300310BD0CBC0CFF3E031D56
:100DA000CB2EAE2E44081A3E84000008B900390745
:100DB000013E84000A128A1500200A128A11BE0020
:100DC0000A128A1500200A128A11BF003E083F0449
:100DD0000319082F3E080F39B900B90A0130BA00CB
:100DE0000030BB00F62E0310BA0DBB0DB90BF32E6D
:100DF00044081D3E84003A088004840A3B088004AD
:100E000004300310BF0CBE0CFF3E031D012FE62E65
:100E10004408193E84000008B9003907013E8400E7
:100E20000A128A1500200A128A11C0000A128A15B5
:100E300000200A128A11C1004008410403195B2FE7
:100E400044081D3E840083130008B900840A00088A
:100E5000BA0040080F39013E302F0310BA0CB90C0C
:100E6000FF3E031D2D2F39083A04031D392F013091
:100E70003A2F003001390319532F4008B9000230CE
:100E80000310B90CFF3E031D402F39080339033E00
:100E9000BA003A08AA00400803390E3E0A168A1121
:100EA0008A230A128A1104300310C10CC00CFF3EC1
:100EB000031D542F1C2F44081A3E8400831300087E
:100EC000B9003907013E84000A128A1500200A126F
:100ED0008A11C2000A128A1500200A128A11C30060
:100EE000420843040319080044081D3E840083138C
:100EF0000008B900840A0008BA0042080F39013E10
:100F0000842F0310BA0CB90CFF3E031D812F391C2E
:100F10009F2F4208B90002300310B90CFF3E031D99
:100F20008C2F39080339033EBA003A08AA00420858
:100F300003390E3E0A168A1176230A128A110430EA
:100F40000310C30CC20CFF3E031DA02F702FA6017F
:100F5000A11FB12FA009A109A00A0319A10AA60186
:100F6000A60AA31FBC2FA209A309A20A0319A30A58
:100F70000130A4002408A606A701A8012008210426
:100F80000319F32FA501A50AA11BD22F01300310CD
:100F9000A00DA10DFF3E031DC72F0130A4002408A2
:100FA000A507C42F01300310A70DA80DFF3E031D98
:100FB000D32F21082302031DDF2F20082202031C48
:100FC000E82F2008A2022108031CA303A302271470
:100FD00001300310A10CA00CFF3E031DE92F0130CE
:100FE000A502031DD22F26080319FB2FA709A80964
:100FF000A70A0319A80A2808A1002708A0000800CA
:1010000008308A000408840A8207003467344534B3
:10101000AE3426349834BA345134D934403465343B
:10102000213495345434A6345134983442346534E0
:101030005134A93454348634103495342134543422
:101040005134A634653498344034953410346534C2
:10105000523496345434A93441348534413465349F
:101060005134963454349634413495346534A9342B
:10107000EF34BC348834E6348C348934E434B83406
:101080008B34E5349B349E34E834BD34A634E934E3
:101090009434AE34EF34BC3489340034E634A234B2
:1010A0008534E5348A34AA34E6349634AF34E734F0
:1010B0009434B534E434BF34A134E434B8348934DE
:1010C000E7348F34AD340034E534BC34A034E93433
:1010D00092348A34E634B4348B3420342034E93406
:1010E00099348834E6348134BA34E434B834B034D2
:1010F0000034203420342034203420342034203470
:10110000203420342034203420342034203420343F
:10111000203420342034203420340034E434BF34EC
:1011200084342034E734BD3497342034E6349634A4
:10113000AF342034E6349634B9342034E5349D3469
:1011400097340034E2349434823420342034203410
:101150002034203420342034203420342034E2342D
:10116000943482340034E434B8348B34E634AC3410
:10117000A134E5348734BA34E7348E34B0340034E3
:10118000E23496348834E234963488340034E234DD
:10119000943480340034E23494348C340034E234B7
:1011A000943490340034E234943494340034E2348F
:1011B000943498340034E2349434AC3400340A3437
:1011C0000D3400341B345B3400340C3400341130E3
:1011D0009F00023083169F0005150800A601A31F7B
:1011E000F828A209A309A20A0319A30AA601A60ABC
:1011F000A11FFF28A009A109A00A0319A10A20081C
:10120000210403192C29A501A50AA11B13290130CA
:101210000310A00DA10DFF3E031D08290130A400FD
:101220002408A507052921082302031D19292008E0
:101230002202031C21292008A2022108031CA30367
:10124000A30201300310A10CA00CFF3E031D2229B4
:101250000130A502031D1329260803193429A20908
:10126000A309A20A0319A30A2308A1002208A000C7
:101270000800B5002E08B1003107013E84000A12B3
:101280008A1500200A128A15BA000A128A1500204F
:101290000A128A15BB0003303A05B1002F08310746
:1012A000B200B3013208B6003308B7003A08B10003
:1012B00002300310B10CFF3E031D592903303105E4
:1012C000B20030083207B300B4013308B800340864
:1012D000B9003A083B0403190800003037020A300D
:1012E0000319360203189629003039021430031905
:1012F0003802031896293608B1003108A4003808CE
:10130000B2003208A50035080A168A11D5250A123E
:101310008A15003A031996293808B1003108AA0045
:1013200036080A168A1176230A128A150430031029
:10133000BB0CBA0CFF3E031D97294B29A7002008C0
:10134000A3002307013E84000A128A1500200A1216
:101350008A15AC000A128A1500200A128A15AD00FF
:1013600003302C05A30021082307A400A5012408AD
:10137000A8002508A9002C08A30002300310A30C24
:10138000FF3E031DBE2903302305A40022082407C5
:10139000A500A6012508AA002608AB002C082D04EC
:1013A00003190800003029020A3003192802031823
:1013B000FB2900302B02143003192A020318FB29E1
:1013C0002808A3002308F4002A08A4002408F50034
:1013D00027080A168A11A0250A128A15003A031D49
:1013E000FB292A08A3002308FA0028080A168A11F4
:1013F0004E230A128A15043083120310AD0CAC0C74
:10140000FF3E031DFD29B029A7002008A3002307E4
:10141000013E84000A128A1500200A128A15AC00C7
:101420000A128A1500200A128A15AD0003302C0515
:10143000A30021082307A400A5012408A80025086B
:10144000A9002C08A30002300310A30CFF3E031DCB
:10145000242A03302305A40022082407A500A6019E
:101460002508AA002608AB002C082D040319080043
:10147000003029020A30031928020318612A0030BB
:101480002B02143003192A020318612A2808A3002A
:101490002308F4002A08A4002408F50027080A16E7
:1014A0008A11A0250A128A15003A0319612A2A080E
:1014B000A3002308FA0028080A168A1162230A12D8
:1014C0008A15043083120310AD0CAC0CFF3E031DD3
:1014D000632A162AF80078080A168A11E9240A12E3
:1014E0008A15003A031D762A023008007808840025
:1014F0008313000883120313A000840A0008A100CC
:101500007808023E84000008A20004300310A20CF8
:10151000FF3E031D862A2208A300A30A0130A4006F
:101520000030A500962A0310A40DA50DA30B932A45
:1015300020082405A60021082505A7002608270461
:101540000319A42A0130A52A0030A8002808F700B2
:101550007808023E84000008A00004300310A00CAC
:10156000FF3E031DAE2A20080A168A11D7220A124E
:101570008A1583120313A10004300310A10DFF3E4E
:10158000031DBD2A7808023E840000080F39210798
:10159000A2007808023E8400220880007708080034
:1015A000AA00AD01A901AB012A080A128A156A2214
:1015B0000A128A15F900831203132B0AE12A031079
:1015C000F90DFF3E031DDF2A7908FA007A08AD0401
:1015D0000130F9007908AB0703302B02031CD42A31
:1015E0000A168A11A7220A128A1507302D06031D32
:1015F0000C2B0310AD0D0730F9007908AD052A0852
:101600000A128A156A220A128A150139F900790824
:1016100083120313AD04F52A06302D06031D122B89
:1016200018300800AC012A080A128A156A220A1228
:101630008A15F900831203132C0A202B0310F90DCD
:10164000FF3E031D1E2B7908FA007A08A904013019
:10165000F9007908AC0702302C02031C132B2D086B
:10166000F90002300310F90DFF3E031D322B29084B
:1016700079070800F900DD300A168A11B9230A1229
:101680008A150A30F8007808F00077080A168A11DF
:1016900012240A128A15003A03195E2B0A30F80048
:1016A0007808F00077080A168A1112240A128A159F
:1016B000303E0A168A11C1220A128A150A30F80031
:1016C0007808F00077080A168A1154240A128A153D
:1016D000303E0A168A11C1220A128A153B300A16B8
:1016E0008A11C1220A128A150A30F8007808F0001F
:1016F00079080A168A1112240A128A15003A031967
:10170000912B0A30F8007808F00079080A168A113F
:1017100012240A128A15303E0A168A11C1220A12B0
:101720008A150A30F8007808F00079080A168A113C
:1017300054240A128A15303E0A168A11C1220A124E
:101740008A1548300A168A11C1220800A900DD3026
:101750000A168A11D5230A128A150A30A800280809
:10176000A00027080A168A1133240A128A15003AA3
:101770000319CA2B0A30A8002808A00027080A1657
:101780008A1133240A128A15303E0A168A11E4227D
:101790000A128A150A30A8002808A00027080A168D
:1017A0008A1177240A128A15303E0A168A11E42219
:1017B0000A128A153B300A168A11E4220A128A1587
:1017C0000A30A8002808A00029080A168A11332424
:1017D0000A128A15003A0319FD2B0A30A8002808BE
:1017E000A00029080A168A1133240A128A15303EED
:1017F0000A168A11E4220A128A150A30A80028085B
:10180000A00029080A168A1177240A128A15303E88
:101810000A168A11E4220A128A1548300A168A1119
:10182000E42208000C1F3E2C0C130A168A11AC226D
:101830000A128A158312D80006300310D80CFF3E16
:10184000031D1D2C5808D9005908F700EB300A1663
:101850008A118B260A128A15EB300A168A11E9249E
:101860000A128A1583120313D8000F305802031886
:101870003E2C0A168A11A7220A128A158C1E982C51
:101880008C121A08D8005808DE001B305F06031DB2
:10189000852C5B306006031D782C41305E06031DED
:1018A000582CCB300A168A11A6220A128A15752CDA
:1018B00042305E06031D632CCB300A128A112520AC
:1018C0000A128A15752C43305E06031D6A2CAE0180
:1018D000AE0A6F2C44305E06031D752CAE01CB3072
:1018E0000A128A11FD210A128A15E001DF01982CE3
:1018F0005B305E06031D802C5B30D8005808E0008A
:101900005B305E06031D762C982C1B305E06031D93
:101910008D2C1B30D8005808DF000D305E060319EF
:101920006118982C0A168A11C0240A128A156114AB
:101930005D08FF005C088A005B0884005A0E830083
:10194000FE0E7E0E09000A168A119A240A128A15C2
:10195000A701A70A2C300A128A15A6230A128A1593
:10196000D6300A168A11D5230A128A150230AF0022
:101970002F08B100A901A90AFF300A128A15D5263D
:101980000A128A159430AF002F08A1008230B000EF
:101990003008A200E2300A168A113C230A128A1586
:1019A0000130AF002F08B10716303102031CBA2CEA
:1019B000A901A90AFF300A128A15D5260A128A152A
:1019C0009430AF002F08A100B430B0003008A2005E
:1019D000E2300A168A113C230A128A15A701A70AC7
:1019E00017300A128A15A6230A128A159430AF00FE
:1019F0002F08A100AC30B0003008A200E2300A1677
:101A00008A113C230A128A150230AF002F08B20057
:101A1000A901A90AFF300A128A15D5260A128A15C9
:101A20009430AF002F08A1008230B0003008A2002F
:101A3000E2300A168A113C230A128A150130AF00DF
:101A40002F08B20716303202031C082DA901A90A7B
:101A5000FF300A128A15D5260A128A159430AF0073
:101A60002F08A100B430B0003008A200E2300A16FE
:101A70008A113C230A128A150430AF002F08A700F0
:101A800032300A128A15A6230A128A15C6300A169F
:101A90008A11D5230A128A15B301C2300A168A1197
:101AA000D5230A128A150130AF002F08B3070A3078
:101AB0003302031C4D2DCA300A168A11D5230A128F
:101AC0008A15B401A901A90AF4300A128A15D5268B
:101AD0000A128A159D300A168A11D5230A128A1510
:101AE0000130AF002F08B40704303402031C622D0C
:101AF000A901A90AF4300A128A15D5260A128A15F4
:101B0000CE300A168A11D5230A128A15B501C230C1
:101B10000A168A11D5230A128A150130AF002F0840
:101B2000B5070A303502031C872DD2300A168A11F8
:101B3000D5230A128A150330AF002F08A7003430CE
:101B40000A128A15A6230A128A15AE300A168A11BD
:101B5000D5230800FC00DD300A168A11B9230A12C9
:101B60008A157908803A7F3E031CF42D0A30F00074
:101B70000030F1007908F200F301F21BF3030A16BA
:101B80008A11E0260A128A15700871040319DD2DE6
:101B90000A30F0000030F1007908F200F301F21B86
:101BA000F3030A168A11E0260A128A157008303EDD
:101BB0000A168A11C1220A128A150A30F000003072
:101BC000F1007908F200F301F21BF3030A168A11FF
:101BD00040260A128A157008303E0A168A11C12260
:101BE0000A128A1542303A2EF630F000FF30F1002A
:101BF0007908F200F301F21BF3030A168A11E026BA
:101C00000A128A157008710403191B2EF630F000B1
:101C1000FF30F1007908F200F301F21BF3030A161A
:101C20008A11E0260A128A157008303E0A168A11B7
:101C3000C1220A128A150A30F0000030F10079083A
:101C4000FA00FB01FA1BFB03FA09FB09FA0A031964
:101C5000FB0A7A08F2007B08F3000A168A11402674
:101C60000A128A157008303E0A168A11C1220A1219
:101C70008A1541300A168A11C1220A128A15DD30EE
:101C80000A168A11B9230A128A157C08803A7F3E07
:101C9000031C8B2E0A30F0000030F1007C08F200AB
:101CA000F301F21BF3030A168A11E0260A128A15C1
:101CB000700871040319712E0A30F0000030F10031
:101CC0007C08F200F301F21BF3030A168A11E026E6
:101CD0000A128A157008303E0A168A11C1220A12A9
:101CE0008A150A30F0000030F1007C08F200F301A0
:101CF000F21BF3030A168A1140260A128A1570088D
:101D0000303E0A168A11C1220A128A1543300A1679
:101D10008A11C1220800F630F000FF30F1007C0883
:101D2000F200F301F21BF3030A168A11E0260A12ED
:101D30008A15700871040319B22EF630F000FF30D6
:101D4000F1007C08F200F301F21BF3030A168A117A
:101D5000E0260A128A157008303E0A168A11C1223E
:101D60000A128A150A30F0000030F1007C08FA00EF
:101D7000FB01FA1BFB03FA09FB09FA0A0319FB0A28
:101D80007A08F2007B08F3000A168A1140260A122C
:101D90008A157008303E0A168A11C1220A128A1565
:101DA00044300A168A11C1220800AC00DD300A1640
:101DB0008A11D5230A128A152908803A7F3E031C0E
:101DC0001F2F0A30A0000030A1002908A200A301A3
:101DD000A21BA3030A128A11A7270A128A15200838
:101DE00021040319082F0A30A0000030A10029089F
:101DF000A200A301A21BA3030A128A11A7270A1299
:101E00008A152008303E0A168A11E4220A128A1521
:101E10000A30A0000030A1002908A200A301A21BE3
:101E2000A3030A128A15EE200A128A152008303EF2
:101E30000A168A11E4220A128A154230652FF630FA
:101E4000A000FF30A1002908A200A301A21BA30348
:101E50000A128A11A7270A128A15200821040319D9
:101E6000462FF630A000FF30A1002908A200A301F0
:101E7000A21BA3030A128A11A7270A128A15200897
:101E8000303E0A168A11E4220A128A150A30A0008E
:101E90000030A1002908AA00AB01AA1BAB03AA09C4
:101EA000AB09AA0A0319AB0A2A08A2002B08A3004F
:101EB0000A128A15EE200A128A152008303E0A16E8
:101EC0008A11E4220A128A1541300A168A11E42284
:101ED0000A128A15DD300A168A11D5230A128A15CC
:101EE0002C08803A7F3E031CB62F0A30A000003039
:101EF000A1002C08A200A301A21BA3030A128A11AD
:101F0000A7270A128A152008210403199C2F0A30DA
:101F1000A0000030A1002C08A200A301A21BA30373
:101F20000A128A11A7270A128A152008303E0A16BB
:101F30008A11E4220A128A150A30A0000030A1009A
:101F40002C08A200A301A21BA3030A128A15EE20EB
:101F50000A128A152008303E0A168A11E4220A1253
:101F60008A1543300A168A11E4220800F630A000D0
:101F7000FF30A1002C08A200A301A21BA3030A1298
:101F80008A11A7270A128A15200821040319DD2FB8
:101F9000F630A000FF30A1002C08A200A301A21B74
:101FA000A3030A128A11A7270A128A152008303EB5
:101FB0000A168A11E4220A128A150A30A00000309B
:101FC000A1002C08AA00AB01AA1BAB03AA09AB090C
:101FD000AA0A0319AB0A2A08A2002B08A3000A12B6
:101FE0008A15EE200A128A152008303E0A168A1138
:101FF000E4220A128A1544300A168A11E4220800E3
:10254C0008001F15080083121F1508000A168A11AF
:10255C00B22283161E08080083120C1B0800831677
:10256C000C1B0800B22A64008001840A04060319BB
:10257C0000340406BA2AF000831203130C1EC22A7C
:10258C0070089900831698180800C82AA000200823
:10259C0084008001840A80012008023E84008001AE
:1025AC000800F1000130F0007008F10710307102E2
:1025BC00031CE22A00300800710808008316A000F2
:1025CC0083120C1EE62A83162008831299008316A8
:1025DC0098180800ED2AA1000130A0002008A107DE
:1025EC0010302102031CFC2A0030080021080800CE
:1025FC00FC30A000200887058801FC30A0002008D2
:10260C0083128705FF3088000800C030A000200826
:10261C0087042430980003308600831287019030A1
:10262C009800831699010800F300F201731C222B09
:10263C007008F1007108F2070310F00D0310F30C91
:10264C007308031D1C2B72080800A300A201231C95
:10265C00332B2008A1002108A2070310A00D0310A2
:10266C00A30C2308031D2D2B22080800A30023080C
:10267C000A168A11E4220A168A1121080A168A11EE
:10268C00E4220A168A1122080A168A11E42208008A
:10269C00FD007A08023EFB007B08F7007D08FC0079
:1026AC007C07183E0A128A153A230A168A118630BC
:1026BC000A168A11B9230800FD007A08023EFB00B5
:1026CC007B08F7007D08FC007C07183E0A128A156F
:1026DC003A230A168A11BB300A168A11B92308004C
:1026EC00AD002A08023EAB002B08A7002D08AC0059
:1026FC002C07183E0A128A15A6230A168A11BB301B
:10270C000A168A11D5230800AD002A08023EAB0038
:10271C002B08A7002D08AC002C07183E0A128A15AE
:10272C00A6230A168A1186300A168A11D5230800A8
:10273C00C7004508C60047081F3E8400460883139F
:10274C00800045080A168A119B270A168A11C600B2
:10275C0047081A3E840046088313800047080A1273
:10276C008A1152260800F200720884000A128A1597
:10277C0000200A168A11003A031908007208840016
:10278C000A128A1500200A168A110A168A11C12209
:10279C000A168A110130F1007108F207BA2B831660
:1027AC00A200220884000A128A1500200A168A1137
:1027BC00003A03190800220884000A128A15002026
:1027CC000A168A110A168A11E4220A168A11013095
:1027DC00A1002108A207D72BC0308316A100210825
:1027EC008B040C178C160A168A110B230A168A11E5
:1027FC000A168A11FE220A168A110A128A15E72075
:10280C000A168A11EB300A168A11CC220A168A1182
:10281C000A168A11A9220800F200F40170080319A3
:10282C00312CF301F30AF01B222C0310F00D0130B4
:10283C00F1007108F307192C0310F40D70087202E3
:10284C00031C2C2C7008F20274140310F00C0130D1
:10285C00F302031D222C74080800A200A401200816
:10286C000319522CA301A30AA01B432C0310A00D87
:10287C000130A1002108A3073A2C0310A40D200855
:10288C002202031C4D2C2008A20224140310A00CBD
:10289C000130A302031D432C24080800F400083067
:1028AC00F1007108F500F6017408F100073003100F
:1028BC00F10CFF3E031D5D2C7608F20072077104CB
:1028CC00F3007308F6000310F40D70087602031C75
:1028DC00712C7008F6020130F502031D5A2C760893
:1028EC000800A4000830A1002108A500A6012408B6
:1028FC00A10007300310A10CFF3E031D802C2608FD
:10290C00A20022072104A3002308A6000310A40D93
:10291C0020082602031C942C2008A6020130A502D4
:10292C00031D7D2C260808000230AD002D08A700E1
:10293C0018300A128A15A6230A168A11AE017430B1
:10294C000A168A11D5230A168A1113302E0603197A
:10295C00B72CA901A90AEC300A128A15D5260A1639
:10296C008A110130AD002D08AE0714302E02031869
:10297C000800A52C0230FD007D08F70018300A1263
:10298C008A153A230A168A118312A00174300A168A
:10299C008A11B9230A168A111330831220060319DF
:1029AC00DF2CF901F90AEC300A128A15AA250A164D
:1029BC008A110130FD007D088312A007143020021B
:1029CC0003180800CC2CF5007508023E84000F306B
:1029DC0083130005F0007508023E84000008F10026
:1029EC0004300310F10CFF3E031DF72C710870022C
:1029FC00F2007208F600F61F0C2D10307607F3006B
:102A0C00F4010318F40AF61BF403112D7608F300F5
:102A1C00F401F31BF40373080800A5002508023E1B
:102A2C0084000F3083130005A0002508023E8400AB
:102A3C000008A10004300310A10CFF3E031D212D42
:102A4C0021082002A2002208A600A61F362D103055
:102A5C002607A300A4010318A40AA61BA4033B2D5C
:102A6C002608A300A401A31BA403831603132308A5
:102A7C0008000A168A11F2230A168A110A128A1100
:102A8C00FD240A168A110A128A15A3240A168A1121
:102A9C00EB30C8004808C500CB300A168A119E23BB
:102AAC000A168A116408C8004808AE006608C900F6
:102ABC004908AF006708CA004A08B000CB300A12B8
:102ACC008A1539210A168A116A2DFB000A30740204
:102ADC000318080014307502031808000A30F600B9
:102AEC007608F00075080A168A111A230A168A113C
:102AFC007407F7007708FA000130F6007A080739F6
:102B0C00013E8A2D0310F60DFF3E031D882D76081D
:102B1C00F7007A08F80003300310F80CFF3E031D91
:102B2C00922D78087B07F9007908840077088313C5
:102B3C0080040800F9000A3074020318D32D1430F5
:102B4C0075020318D32D0A30F6007608F0007508CC
:102B5C000A168A111A230A168A117407F7007708C5
:102B6C00FA007A08F60003300310F60CFF3E031D42
:102B7C00BA2D76087907F7007708840083130008CC
:102B8C00F8007A080739013ECD2D0310F80CFF3EF2
:102B9C00031DCB2D78080139080000300800AA006D
:102BAC000A3024020318082E143025020318082EAC
:102BBC000A30A6002608A00025080A168A112B2325
:102BCC000A168A112407A7002708A9002908A600BD
:102BDC0003300310A60CFF3E031DEF2D26082A0719
:102BEC00A7002708840083130008A80029080739C8
:102BFC00013E022E0310A80CFF3E031D002E2808D8
:102C0C000139080000300800FA000A307402031879
:102C1C00080014307502031808000A30F600760814
:102C2C00F00075080A168A111A230A168A117407FD
:102C3C00F7007708FB000130F6007B080739013EEE
:102C4C00292E0310F60DFF3E031D272E7608FF3AA2
:102C5C00F7007B08F80003300310F80CFF3E031D4F
:102C6C00322E78087A07F9007908840077088313E4
:102C7C0080050800F601F31F4A2EF209F309F20A47
:102C8C000319F30AF601F60AF11F512EF009F109A6
:102C9C00F00A0319F10A7008710403197E2EF5016C
:102CAC00F50AF11B652E01300310F00DF10DFF3EFE
:102CBC00031D5A2E0130F4007408F507572E7108C5
:102CCC007302031D6B2E70087202031C732E7008A6
:102CDC00F2027108031CF303F30201300310F10C30
:102CEC00F00CFF3E031D742E0130F502031D652E02
:102CFC0076080319862EF209F309F20A0319F30A6E
:102D0C007308F1007208F0000800FB007B080A163B
:102D1C008A11E9240A168A11F8000F307802031878
:102D2C0008007B08023E8400831300080F39F8006A
:102D3C00F80A0130F9000030FA00A72E0310F90D43
:102D4C00FA0DF80BA42EF909FA097B08840079080E
:102D5C008005840A7A0880057B08023E84000008FE
:102D6C000F39F800F80A77080139F900FA01C12E79
:102D7C000310F90DFA0DF80BBE2E7B0884007908B0
:102D8C008004840A7A0880047B08023E84000F3099
:102D9C000005F8007B08023E840000080F390A1673
:102DAC008A11D7227807F9007B08023E8400790843
:102DBC0080000800F601F11FEA2EF009F109F00A73
:102DCC000319F10AF601F60AF31FF52EF209F309BD
:102DDC00F20A0319F30A0130F4007408F606F7013D
:102DEC00F8017008710403192C2FF501F50AF11B79
:102DFC000B2F01300310F00DF10DFF3E031D002FC2
:102E0C000130F4007408F507FD2E01300310F70DA6
:102E1C00F80DFF3E031D0C2F71087302031D182FB4
:102E2C0070087202031C212F7008F2027108031C37
:102E3C00F303F302771401300310F10CF00CFF3E96
:102E4C00031D222F0130F502031D0B2F76080319E9
:102E5C00342FF709F809F70A0319F80A7808F10072
:102E6C007708F0000800B10031080A168A11132502
:102E7C000A168A11003A031D452F0230080031084A
:102E8C00840083130008A700840A0008A8003108F6
:102E9C00023E84000008A90004300310A90CFF3E78
:102EAC00031D532F2908AA00AA0A0130AB000030D9
:102EBC00AC00632F0310AB0DAC0DAA0B602F2708D1
:102ECC002B05AD0028082C05AE002D082E04031987
:102EDC00712F0130722F0030AF002F08B000310875
:102EEC00023E84000008A70004300310A70CFF3E2C
:102EFC00031D7B2F27080A168A11F1220A168A1144
:102F0C00A80004300310A80DFF3E031D882F3108C4
:102F1C00023E840000080F392807A9003108023E40
:102F2C0084002908800030080800B700B801B401FB
:102F3C00B50137080A168A1139270A168A11B20008
:102F4C00350AAA2F0310B20DFF3E031DA82F32081D
:102F5C00B3003308B8040130B2003208B5070330AF
:102F6C003502031C9F2F0A168A11A9220A168A11F0
:102F7C00073083163806031DD42F0310B80D073005
:102F8C00B2003208B80537080A168A1139270A1612
:102F9C008A110139B2003208B804BE2F0630380647
:102FAC00031DDA2F18300800B60137080A168A11EB
:102FBC0039270A168A11B200360AE62F0310B20D11
:102FCC00FF3E031DE42F3208B3003308B404013074
:102FDC00B2003208B60702303602031CDB2F380869
:102FEC00B20002300310B20DFF3E031DF82F34085F
:042FFC003207080090
:02400E00393F38
:00000001FF
